:0C08E80054454D504552415455524500B6
:100800007F147E001208741208D27BFF7A0879E800
:10081000120894D2B2D2B0D2B1C2B1120870D2B121
:1008200020B2FDC2B085900BAF0B1208387FE87E76
:0808300003120874D2B080E14C
:020838008F0827
:10083A007FC6120900E50875F00A842430FFE5082E
:10084A0075F00A8485F00974302509F509750ADFFF
:10085A0012090AAF0912090AAF0A12090A7F4302EA
:02086A00090A79
:0A0900008FA0C28512086CC2872286
:0A090A008FA0D28512086CC287226C
:100894008B088A09890AAB08AA09A90A1208B9604F
:1008A40013050AE50A7002050914F91208B9FF12C2
:0508B400090A80E222A8
:1008D2007F647E001208747F381209007F0E1209AD
:0608E200007F0102090085
:08086C00C286D2877F017E00E5
:10087400E4FDFCC3ED9FEC9E5015E4FBFA0BBB00BA
:0F088400010ABA01F8BBF4F50DBD00010C80E4C8
:010893002242
:030000000208F4FF
:0C08F400787FE4F6D8FD75810C02080046
:1008B900BB010689828A83E0225002E722BBFE023D
:0908C900E32289828A83E4932270
:00000001FF
